:020000040800F2
:10000000000001202D0F0008D1040008D3040008CF
:10001000D5040008D7040008D90400080000000037
:10002000000000000000000000000000DB040008E9
:10003000DD04000800000000DF040008E1040008FF
:10004000750F0008750F0008750F0008750F000880
:10005000750F0008750F0008750F0008750F000870
:10006000750F0008750F0008750F0008750F000860
:10007000750F0008750F0008750F0008750F000850
:10008000750F0008750F0008750F0008750F000840
:10009000750F0008750F0008750F0008750F000830
:1000A000750F0008750F0008750F0008750F000820
:1000B000750F0008750F0008750F0008750F000810
:1000C000750F0008750F0008750F0008750F000800
:1000D000750F0008750F0008750F0008750F0008F0
:1000E000750F0008750F0008750F0008750F0008E0
:1000F000750F0008750F0008750F0008750F0008D0
:10010000750F0008750F0008750F0008750F0008BF
:10011000750F0008750F0008750F0008750F0008AF
:10012000750F0008750F0008750F0008750F00089F
:1001300000000000000000000000000000000000BF
:1001400000000000000000000000000000000000AF
:10015000000000000000000000000000000000009F
:10016000000000000000000000000000000000008F
:10017000000000000000000000000000000000007F
:10018000000000000000000000000000000000006F
:10019000000000000000000000000000000000005F
:1001A000000000000000000000000000000000004F
:1001B000000000000000000000000000000000003F
:1001C000000000000000000000000000000000002F
:1001D000000000000000000000000000000000001F
:0401E0005FF8E0F1F3
:1001E4000348044B834202D0034B03B118477047C2
:1001F4000C0000200C000020000000000548064907
:100204000B1AD90F01EBA301491002D0034B03B120
:10021400184770470C0000200C000020000000006C
:1002240010B5064C237843B9FFF7DAFF044B13B13A
:100234000448AFF300800123237010BD0C0000209C
:1002440000000000780F000808B5044B1BB10449F6
:100254000448AFF30080BDE80840CFE70000000089
:1002640010000020780F000870B50D4E0D4D761B60
:10027400B61006D0002455F8043B01349847A64232
:10028400F9D1094E094D00F075FE761BB61006D063
:10029400002455F8043B01349847A642F9D170BDB7
:1002A400B40F0008B40F0008B80F0008B40F00081A
:1002B400830730B548D0541E002A3FD00346CAB243
:1002C40001E0013C3AD303F8012B9D07F9D1032C3B
:1002D4002DD9CDB245EA05250F2C45EA054536D979
:1002E400A4F1100222F00F0C03F1200EE6444FEAB1
:1002F400121C03F1100242E9045542E9025510327E
:100304007245F8D10CF1010214F00C0F03EB021248
:1003140004F00F0C13D0ACF1040323F003030433F3
:10032400134442F8045B9342FBD10CF003042CB158
:10033400CAB21C4403F8012B9C42FBD130BD644675
:100344001346002CF4D1F9E703461446BFE71A46D6
:10035400A446E0E772B6FEE700B591B0282200217A
:1003640006A8FFF7A5FF00230193029303930493C8
:1003740005930223069301230A9310230B9306A8E3
:1003840000F046F968B90F2301930021029103910B
:100394000491059101A800F07BFB20B911B05DF830
:1003A40004FBFFF7D7FFFFF7D5FF000008B500F007
:1003B400E1F800F013F800F037F8FFF7CDFF012162
:1003C400044800F067F80028F9D02021024800F022
:1003D40042FDF4E700080140000C014010B582B072
:1003E4000E4B9A6942F008029A619B6903F0080374
:1003F4000193019B0A4C00222021204600F025FD98
:10040400084901234B6002238B60CB6020230B60DF
:10041400204600F0F3FB02B010BD00BF0010024004
:10042400000C01402800002010B582B0154B9A69D9
:1004340042F004029A619A6902F004020092009A5E
:100444009A6942F010029A619B6903F010030193C8
:10045400019B0D4C00220121204600F0F6FC0022F5
:100464004FF40051094800F0F0FC094900234B60A7
:100474008B6042F201030B60204600F0BFFB02B028
:1004840010BD00BF001002400008014000100140F0
:1004940028000020F8B505460E4600F0CFFC0128E0
:1004A40011D000273846F8BD0134E4B2012000F031
:1004B40085F83146284600F0C1FC0128F4D00A2C06
:1004C400F0D80027EEE707460024F2E7FEE7FEE750
:1004D400FEE7FEE7FEE770477047704708B500F097
:1004E4005BF808BD82B00E4B9A6942F001029A6132
:1004F4009A6902F001020092009ADA6942F080528D
:10050400DA61DB6903F080530193019B054A536868
:1005140023F0E06343F00073536002B0704700BF00
:10052400001002400000014010B504460E4B18783C
:100534004FF47A73B3FBF0F30C4A1068B0FBF3F09A
:1005440000F0DCFC68B90F2C01D901200AE000227C
:1005540021464FF0FF3000F099FC054B1C60002051
:1005640000E0012010BD00BF0000002008000020B2
:100574000400002008B5074A136843F01003136011
:10058400032000F071FC0F20FFF7CEFFFFF7AAFF56
:10059400002008BD00200240034A1168034B1B7869
:1005A4000B441360704700BF380000200000002097
:1005B400014B1868704700BF3800002038B5044666
:1005C400FFF7F6FF0546B4F1FF3F02D0044B1B785A
:1005D4001C44FFF7EDFF401BA042FAD338BD00BF17
:1005E4000000002082B0084B1B68084AA2FB0323CA
:1005F4005B0A00FB03F3019300BF019B5A1E0192A7
:10060400002BF9D102B0704708000020D34D6210CE
:10061400002800F0F18170B582B00446036813F03D
:10062400010F2CD0994B5B6803F00C03042B1DD0F5
:10063400964B5B6803F00C03082B12D06368B3F588
:10064400803F41D0002B55D103F1804303F504339F
:100654001A6822F480321A601A6822F480221A601E
:1006640037E08A4B5B6813F4803FE7D0874B1B6805
:1006740013F4003F03D06368002B00F0BF812368AC
:1006840013F0020F75D0814B5B6813F00C0F5FD031
:100694007E4B5B6803F00C03082B54D02369002BBA
:1006A40000F08A807A4B01221A60FFF781FF054629
:1006B400764B1B6813F0020F75D1FFF779FF401BCF
:1006C4000228F5D903209EE1704A136843F480336D
:1006D4001360636843B3FFF76BFF05466B4B1B68FE
:1006E40013F4003FCBD1FFF763FF401B6428F5D917
:1006F400032088E1B3F5A02F09D0644B1A6822F4D3
:1007040080321A601A6822F480221A60E1E703F149
:100714008043A3F53C331A6842F480221A601A68B5
:1007240042F480321A60D4E7FFF742FF0546574B84
:100734001B6813F4003FA2D0FFF73AFF401B642864
:10074400F5D903205FE1514B5B6813F4803FA5D1D9
:100754004E4B1B6813F0020F03D02369012B40F0AA
:100764004F814A4A136823F0F803616943EAC103DD
:100774001360236813F0080F33D0A369002B5CD0F7
:10078400434B0122C3F88024FFF712FF05463F4B79
:100794005B6A13F0020F21D1FFF70AFF401B022806
:1007A400F5D903202FE1394A136823F0F80361696E
:1007B40043EAC1031360DCE7354B00221A60FFF7FC
:1007C400F7FE0546314B1B6813F0020FD1D0FFF73B
:1007D400EFFE401B0228F5D9032014E10120FFF7A6
:1007E40001FF236813F0040F00F09680274BDB69A8
:1007F40013F0805F34D1254BDA6942F08052DA611C
:10080400DB6903F080530193019B0125214B1B6895
:1008140013F4807F26D0E368012B3DD0002B53D105
:1008240003F1804303F504331A6A22F001021A62C9
:100834001A6A22F004021A6233E0154B0022C3F84C
:100844008024FFF7B5FE0546104B5B6A13F0020FD8
:10085400C7D0FFF7ADFE401B0228F5D90320D2E034
:100864000025D3E70B4A136843F480731360FFF742
:100874009FFE0646074B1B6813F4807FCBD1FFF71E
:1008840097FE801B6428F5D90320BCE000100240C9
:1008940000004242007000405F4A136A43F00103C3
:1008A4001362E36833B3FFF783FE06465A4B1B6AB1
:1008B40013F0020F2FD1FFF77BFE801B41F2883328
:1008C4009842F3D903209EE0052B09D0524B1A6AB3
:1008D40022F001021A621A6A22F004021A62E0E7A4
:1008E4004D4B1A6A42F004021A621A6A42F001027B
:1008F4001A62D6E7FFF75CFE0646474B1B6A13F005
:10090400020F08D0FFF754FE801B41F2883398424F
:10091400F3D9032077E0E5B9E369002B72D03E4AAE
:10092400526802F00C02082A56D0022B17D03B4B17
:1009340000221A66FFF73CFE0446374B1B6813F08F
:10094400007F47D0FFF734FE001B0228F5D90320AF
:1009540059E0314AD36923F08053D361DCE72F4B4C
:1009640000221A66FFF724FE05462B4B1B6813F082
:10097400007F06D0FFF71CFE401B0228F5D9032098
:1009840041E0236AB3F5803F1AD023494B6823F42E
:100994007413226A606A024313434B601F4B0122A3
:1009A4001A66FFF705FE04461B4B1B6813F0007F15
:1009B4000ED1FFF7FDFD001B0228F5D9032022E02C
:1009C400154A536823F40033A1680B435360DCE7F2
:1009D400002018E0002016E0012B16D00E4B5B68B7
:1009E40003F48031226A914211D103F47013626AD4
:1009F40093420ED1002006E001207047012002E05E
:100A0400012000E0002002B070BD0120FBE70120BE
:100A1400F9E70120F7E700BF00100240000042425E
:100A240086B0174B0FCB0DF1180C0CE90F0040F2F8
:100A34000123ADF80430134B5B6803F00C02082A61
:100A440002D0114806B07047C3F3834218326A4497
:100A540012F8100C13F4803F0DD00A4B5B68C3F3FB
:100A6400404318336B4413F8143C074A02FB00F06C
:100A7400B0FBF3F0E6E7054B03FB00F0E2E700BF51
:100A8400900F00080010024000127A0000093D0097
:100A9400002800F0A08070B50D460446524B1B6838
:100AA40003F007038B420BD24F4A136823F007036A
:100AB4000B431360136803F007038B4240F08D80EF
:100AC400236813F0020F17D013F0040F04D0474A21
:100AD400536843F4E0635360236813F0080F04D0B1
:100AE400424A536843F460535360404A536823F0C6
:100AF400F003A1680B435360236813F0010F31D056
:100B04006368012B20D0022B25D0384A126812F0DA
:100B1400020F64D035494A6822F0030213434B6044
:100B2400FFF746FD0646314B5B6803F00C03626831
:100B3400B3EB820F16D0FFF73BFD801B41F28833E5
:100B44009842F0D9032045E0284A126812F4003F85
:100B5400E0D101203EE0254A126812F0007FD9D18D
:100B6400012037E0204B1B6803F00703AB420AD98E
:100B74001D4A136823F007032B431360136803F023
:100B84000703AB422DD1236813F0040F06D0174A94
:100B9400536823F4E063E1680B435360236813F064
:100BA400080F07D0114A536823F46053216943EABC
:100BB400C1035360FFF734FF0C4B5B68C3F30313AB
:100BC4000B4AD35CD8400B4B18600B4B1868FFF7EB
:100BD400ABFC002070BD012070470120FAE7012022
:100BE400F8E70120F6E700BF0020024000100240B1
:100BF400A40F0008080000200400002070B582B093
:100C04000024A446B0E0874DAA4210D007D9864DEF
:100C1400AA420CD005F58035AA4208D013E0A5F508
:100C24008015AA4203D005F57025AA4207D18A6827
:100C3400002A62D0012A5BD04361082403E0A5F5B1
:100C44008015AA42F3D0BEF1FF0F58D80646BEF174
:100C5400FF0F56D84FEA8C0233680F25954023EADC
:100C6400050304FA02F2134333604B6813F0805F08
:100C740078D06E4B9A6942F001029A619B6903F045
:100C840001030193019B4FEA9C02951C684B53F8A6
:100C940025600CF003039D000F23AB4026EA0306F6
:100CA400644B984233D003F58063984200F09880F7
:100CB40003F58063984200F0958003F580639842C1
:100CC40000F0928003F58063984200F08F8003F572
:100CD4008063984219D006231AE0CC68B3E7CC6845
:100CE4000434B0E7CC680834ADE7CC680C34AAE728
:100CF40003610824A7E70024A5E70424A3E7061D4D
:100D0400A5E7ACF108029200A6E7052300E0002362
:100D1400AB4033430232464D45F822304B6813F45E
:100D2400803F65D0444A136843EA0E0313604B685E
:100D340013F4003F62D0404A536843EA0E03536001
:100D44004B6813F4801F5FD03B4A936843EA0E0359
:100D540093604B6813F4001F5CD0374AD36843EAAE
:100D64000E03D3600CF1010C0A6832FA0CF357D06D
:100D7400012303FA0CF302EA030E33EA0202F1D16F
:100D84004A68122A3FF63FAF122A3FF65CAF01A52C
:100D940055F822F0330C0008DF0C0008E90C0008B9
:100DA400FB0C00084B0C00084B0C00084B0C000813
:100DB4004B0C00084B0C00084B0C00084B0C0008B3
:100DC4004B0C00084B0C00084B0C00084B0C0008A3
:100DD4004B0C00084B0C0008E30C0008EF0C000857
:100DE400012395E7022393E7032391E704238FE785
:100DF400114A136823EA0E03136098E70E4A5368F6
:100E040023EA0E0353609BE70B4A936823EA0E031D
:100E140093609EE7084AD36823EA0E03D360A1E7F0
:100E240002B070BD0000221000003110001002401A
:100E34000000014000080140000401408368194299
:100E440001D001207047002070470AB1016170474A
:100E5400090401617047C36801EA030221EA03013E
:100E640041EA024101617047074AD36823F4E06311
:100E74001B041B0C000200F4E060034343F0BF6357
:100E840043F40033D360704700ED00E000B5194B24
:100E9400DB68C3F30223C3F1070CBCF1040F28BFC2
:100EA4004FF0040C03F1040EBEF1060F18D9033BF6
:100EB4004FF0FF3E0EFA0CFC21EA0C0199400EFAA9
:100EC40003F322EA0303194300280BDB0901C9B227
:100ED40000F1604000F5614080F800135DF804FB08
:100EE4000023E5E700F00F000901C9B2024B1954D1
:100EF400F4E700BF00ED00E014ED00E00138B0F1CC
:100F0400807F0BD24FF0E0235861054AF02182F82C
:100F140023100020986107221A617047012070474E
:100F240000ED00E0704700000C480D490D4A002315
:100F340002E0D458C4500433C4188C42F9D30A4A8A
:100F44000A4C002301E013600432A242FBD3FFF7F2
:100F5400E9FFFFF789F9FFF729FA7047000000203D
:100F64000C000020BC0F00080C0000203C000020F6
:100F7400FEE70000F8B500BFF8BC08BC9E46704709
:0C0F8400F8B500BFF8BC08BC9E467047E2
:100F900002030405060708090A0B0C0D0E0F1010BA
:100FA0000000000000000000000000000102030437
:040FB000060708091F
:040FB4004D020008E2
:040FB8002502000806
:0C0FBC0001000000100000000024F40000
:0400000508000F2DB3
:00000001FF
